{
  "_format": "hh-sol-artifact-1",
  "contractName": "NFT",
  "sourceName": "contracts/NFT.sol",
  "abi": [
    {
      "inputs": [
        {
          "internalType": "address",
          "name": "marketplaceAddress",
          "type": "address"
        }
      ],
      "stateMutability": "nonpayable",
      "type": "constructor"
    },
    {
      "anonymous": false,
      "inputs": [
        {
          "indexed": true,
          "internalType": "address",
          "name": "owner",
          "type": "address"
        },
        {
          "indexed": true,
          "internalType": "address",
          "name": "approved",
          "type": "address"
        },
        {
          "indexed": true,
          "internalType": "uint256",
          "name": "tokenId",
          "type": "uint256"
        }
      ],
      "name": "Approval",
      "type": "event"
    },
    {
      "anonymous": false,
      "inputs": [
        {
          "indexed": true,
          "internalType": "address",
          "name": "owner",
          "type": "address"
        },
        {
          "indexed": true,
          "internalType": "address",
          "name": "operator",
          "type": "address"
        },
        {
          "indexed": false,
          "internalType": "bool",
          "name": "approved",
          "type": "bool"
        }
      ],
      "name": "ApprovalForAll",
      "type": "event"
    },
    {
      "anonymous": false,
      "inputs": [
        {
          "indexed": true,
          "internalType": "address",
          "name": "from",
          "type": "address"
        },
        {
          "indexed": true,
          "internalType": "address",
          "name": "to",
          "type": "address"
        },
        {
          "indexed": true,
          "internalType": "uint256",
          "name": "tokenId",
          "type": "uint256"
        }
      ],
      "name": "Transfer",
      "type": "event"
    },
    {
      "inputs": [
        {
          "internalType": "address",
          "name": "to",
          "type": "address"
        },
        {
          "internalType": "uint256",
          "name": "tokenId",
          "type": "uint256"
        }
      ],
      "name": "approve",
      "outputs": [],
      "stateMutability": "nonpayable",
      "type": "function"
    },
    {
      "inputs": [
        {
          "internalType": "address",
          "name": "owner",
          "type": "address"
        }
      ],
      "name": "balanceOf",
      "outputs": [
        {
          "internalType": "uint256",
          "name": "",
          "type": "uint256"
        }
      ],
      "stateMutability": "view",
      "type": "function"
    },
    {
      "inputs": [
        {
          "internalType": "string",
          "name": "tokenURI",
          "type": "string"
        }
      ],
      "name": "createToken",
      "outputs": [
        {
          "internalType": "uint256",
          "name": "",
          "type": "uint256"
        }
      ],
      "stateMutability": "nonpayable",
      "type": "function"
    },
    {
      "inputs": [
        {
          "internalType": "uint256",
          "name": "tokenId",
          "type": "uint256"
        }
      ],
      "name": "getApproved",
      "outputs": [
        {
          "internalType": "address",
          "name": "",
          "type": "address"
        }
      ],
      "stateMutability": "view",
      "type": "function"
    },
    {
      "inputs": [
        {
          "internalType": "address",
          "name": "owner",
          "type": "address"
        },
        {
          "internalType": "address",
          "name": "operator",
          "type": "address"
        }
      ],
      "name": "isApprovedForAll",
      "outputs": [
        {
          "internalType": "bool",
          "name": "",
          "type": "bool"
        }
      ],
      "stateMutability": "view",
      "type": "function"
    },
    {
      "inputs": [],
      "name": "name",
      "outputs": [
        {
          "internalType": "string",
          "name": "",
          "type": "string"
        }
      ],
      "stateMutability": "view",
      "type": "function"
    },
    {
      "inputs": [
        {
          "internalType": "uint256",
          "name": "tokenId",
          "type": "uint256"
        }
      ],
      "name": "ownerOf",
      "outputs": [
        {
          "internalType": "address",
          "name": "",
          "type": "address"
        }
      ],
      "stateMutability": "view",
      "type": "function"
    },
    {
      "inputs": [
        {
          "internalType": "address",
          "name": "from",
          "type": "address"
        },
        {
          "internalType": "address",
          "name": "to",
          "type": "address"
        },
        {
          "internalType": "uint256",
          "name": "tokenId",
          "type": "uint256"
        }
      ],
      "name": "safeTransferFrom",
      "outputs": [],
      "stateMutability": "nonpayable",
      "type": "function"
    },
    {
      "inputs": [
        {
          "internalType": "address",
          "name": "from",
          "type": "address"
        },
        {
          "internalType": "address",
          "name": "to",
          "type": "address"
        },
        {
          "internalType": "uint256",
          "name": "tokenId",
          "type": "uint256"
        },
        {
          "internalType": "bytes",
          "name": "_data",
          "type": "bytes"
        }
      ],
      "name": "safeTransferFrom",
      "outputs": [],
      "stateMutability": "nonpayable",
      "type": "function"
    },
    {
      "inputs": [
        {
          "internalType": "address",
          "name": "operator",
          "type": "address"
        },
        {
          "internalType": "bool",
          "name": "approved",
          "type": "bool"
        }
      ],
      "name": "setApprovalForAll",
      "outputs": [],
      "stateMutability": "nonpayable",
      "type": "function"
    },
    {
      "inputs": [
        {
          "internalType": "bytes4",
          "name": "interfaceId",
          "type": "bytes4"
        }
      ],
      "name": "supportsInterface",
      "outputs": [
        {
          "internalType": "bool",
          "name": "",
          "type": "bool"
        }
      ],
      "stateMutability": "view",
      "type": "function"
    },
    {
      "inputs": [],
      "name": "symbol",
      "outputs": [
        {
          "internalType": "string",
          "name": "",
          "type": "string"
        }
      ],
      "stateMutability": "view",
      "type": "function"
    },
    {
      "inputs": [
        {
          "internalType": "uint256",
          "name": "tokenId",
          "type": "uint256"
        }
      ],
      "name": "tokenURI",
      "outputs": [
        {
          "internalType": "string",
          "name": "",
          "type": "string"
        }
      ],
      "stateMutability": "view",
      "type": "function"
    },
    {
      "inputs": [
        {
          "internalType": "address",
          "name": "from",
          "type": "address"
        },
        {
          "internalType": "address",
          "name": "to",
          "type": "address"
        },
        {
          "internalType": "uint256",
          "name": "tokenId",
          "type": "uint256"
        }
      ],
      "name": "transferFrom",
      "outputs": [],
      "stateMutability": "nonpayable",
      "type": "function"
    }
  ],
  "bytecode": "0x60806040523480156200001157600080fd5b50604051620018d1380380620018d183398101604081905262000034916200016c565b604080518082018252601081526f4365727469666965642d436c6963686560801b602080830191825283518085019094526002845261434360f01b9084015281519192916200008691600091620000c6565b5080516200009c906001906020840190620000c6565b5050600880546001600160a01b0319166001600160a01b03939093169290921790915550620001d9565b828054620000d4906200019c565b90600052602060002090601f016020900481019282620000f8576000855562000143565b82601f106200011357805160ff191683800117855562000143565b8280016001018555821562000143579182015b828111156200014357825182559160200191906001019062000126565b506200015192915062000155565b5090565b5b8082111562000151576000815560010162000156565b6000602082840312156200017e578081fd5b81516001600160a01b038116811462000195578182fd5b9392505050565b600181811c90821680620001b157607f821691505b60208210811415620001d357634e487b7160e01b600052602260045260246000fd5b50919050565b6116e880620001e96000396000f3fe608060405234801561001057600080fd5b50600436106100ea5760003560e01c80636352211e1161008c578063a22cb46511610066578063a22cb465146101e1578063b88d4fde146101f4578063c87b56dd14610207578063e985e9c51461021a57600080fd5b80636352211e146101b357806370a08231146101c657806395d89b41146101d957600080fd5b8063095ea7b3116100c8578063095ea7b31461015757806323b872dd1461016c57806342842e0e1461017f57806345576f941461019257600080fd5b806301ffc9a7146100ef57806306fdde0314610117578063081812fc1461012c575b600080fd5b6101026100fd36600461139a565b610256565b60405190151581526020015b60405180910390f35b61011f6102a8565b60405161010e91906114c8565b61013f61013a366004611418565b61033a565b6040516001600160a01b03909116815260200161010e565b61016a610165366004611371565b6103c7565b005b61016a61017a366004611283565b6104dd565b61016a61018d366004611283565b61050e565b6101a56101a03660046113d2565b610529565b60405190815260200161010e565b61013f6101c1366004611418565b610571565b6101a56101d4366004611237565b6105e8565b61011f61066f565b61016a6101ef366004611337565b61067e565b61016a6102023660046112be565b61068d565b61011f610215366004611418565b6106c5565b610102610228366004611251565b6001600160a01b03918216600090815260056020908152604080832093909416825291909152205460ff1690565b60006001600160e01b031982166380ac58cd60e01b148061028757506001600160e01b03198216635b5e139f60e01b145b806102a257506301ffc9a760e01b6001600160e01b03198316145b92915050565b6060600080546102b7906115ed565b80601f01602080910402602001604051908101604052809291908181526020018280546102e3906115ed565b80156103305780601f1061030557610100808354040283529160200191610330565b820191906000526020600020905b81548152906001019060200180831161031357829003601f168201915b5050505050905090565b60006103458261083c565b6103ab5760405162461bcd60e51b815260206004820152602c60248201527f4552433732313a20617070726f76656420717565727920666f72206e6f6e657860448201526b34b9ba32b73a103a37b5b2b760a11b60648201526084015b60405180910390fd5b506000908152600460205260409020546001600160a01b031690565b60006103d282610571565b9050806001600160a01b0316836001600160a01b031614156104405760405162461bcd60e51b815260206004820152602160248201527f4552433732313a20617070726f76616c20746f2063757272656e74206f776e656044820152603960f91b60648201526084016103a2565b336001600160a01b038216148061045c575061045c8133610228565b6104ce5760405162461bcd60e51b815260206004820152603860248201527f4552433732313a20617070726f76652063616c6c6572206973206e6f74206f7760448201527f6e6572206e6f7220617070726f76656420666f7220616c6c000000000000000060648201526084016103a2565b6104d88383610859565b505050565b6104e733826108c7565b6105035760405162461bcd60e51b81526004016103a29061152d565b6104d88383836109ad565b6104d88383836040518060200160405280600081525061068d565b6000610539600780546001019055565b600061054460075490565b90506105503382610b4d565b61055a8184610c80565b6008546102a2906001600160a01b0316600161067e565b6000818152600260205260408120546001600160a01b0316806102a25760405162461bcd60e51b815260206004820152602960248201527f4552433732313a206f776e657220717565727920666f72206e6f6e657869737460448201526832b73a103a37b5b2b760b91b60648201526084016103a2565b60006001600160a01b0382166106535760405162461bcd60e51b815260206004820152602a60248201527f4552433732313a2062616c616e636520717565727920666f7220746865207a65604482015269726f206164647265737360b01b60648201526084016103a2565b506001600160a01b031660009081526003602052604090205490565b6060600180546102b7906115ed565b610689338383610d0b565b5050565b61069733836108c7565b6106b35760405162461bcd60e51b81526004016103a29061152d565b6106bf84848484610dda565b50505050565b60606106d08261083c565b6107365760405162461bcd60e51b815260206004820152603160248201527f45524337323155524953746f726167653a2055524920717565727920666f72206044820152703737b732bc34b9ba32b73a103a37b5b2b760791b60648201526084016103a2565b6000828152600660205260408120805461074f906115ed565b80601f016020809104026020016040519081016040528092919081815260200182805461077b906115ed565b80156107c85780601f1061079d576101008083540402835291602001916107c8565b820191906000526020600020905b8154815290600101906020018083116107ab57829003601f168201915b5050505050905060006107e660408051602081019091526000815290565b90508051600014156107f9575092915050565b81511561082b57808260405160200161081392919061145c565b60405160208183030381529060405292505050919050565b61083484610e0d565b949350505050565b6000908152600260205260409020546001600160a01b0316151590565b600081815260046020526040902080546001600160a01b0319166001600160a01b038416908117909155819061088e82610571565b6001600160a01b03167f8c5be1e5ebec7d5bd14f71427d1e84f3dd0314c0f7b2291e5b200ac8c7c3b92560405160405180910390a45050565b60006108d28261083c565b6109335760405162461bcd60e51b815260206004820152602c60248201527f4552433732313a206f70657261746f7220717565727920666f72206e6f6e657860448201526b34b9ba32b73a103a37b5b2b760a11b60648201526084016103a2565b600061093e83610571565b9050806001600160a01b0316846001600160a01b031614806109795750836001600160a01b031661096e8461033a565b6001600160a01b0316145b8061083457506001600160a01b0380821660009081526005602090815260408083209388168352929052205460ff16610834565b826001600160a01b03166109c082610571565b6001600160a01b031614610a285760405162461bcd60e51b815260206004820152602960248201527f4552433732313a207472616e73666572206f6620746f6b656e2074686174206960448201526839903737ba1037bbb760b91b60648201526084016103a2565b6001600160a01b038216610a8a5760405162461bcd60e51b8152602060048201526024808201527f4552433732313a207472616e7366657220746f20746865207a65726f206164646044820152637265737360e01b60648201526084016103a2565b610a95600082610859565b6001600160a01b0383166000908152600360205260408120805460019290610abe9084906115aa565b90915550506001600160a01b0382166000908152600360205260408120805460019290610aec90849061157e565b909155505060008181526002602052604080822080546001600160a01b0319166001600160a01b0386811691821790925591518493918716917fddf252ad1be2c89b69c2b068fc378daa952ba7f163c4a11628f55a4df523b3ef91a4505050565b6001600160a01b038216610ba35760405162461bcd60e51b815260206004820181905260248201527f4552433732313a206d696e7420746f20746865207a65726f206164647265737360448201526064016103a2565b610bac8161083c565b15610bf95760405162461bcd60e51b815260206004820152601c60248201527f4552433732313a20746f6b656e20616c7265616479206d696e7465640000000060448201526064016103a2565b6001600160a01b0382166000908152600360205260408120805460019290610c2290849061157e565b909155505060008181526002602052604080822080546001600160a01b0319166001600160a01b03861690811790915590518392907fddf252ad1be2c89b69c2b068fc378daa952ba7f163c4a11628f55a4df523b3ef908290a45050565b610c898261083c565b610cec5760405162461bcd60e51b815260206004820152602e60248201527f45524337323155524953746f726167653a2055524920736574206f66206e6f6e60448201526d32bc34b9ba32b73a103a37b5b2b760911b60648201526084016103a2565b600082815260066020908152604090912082516104d89284019061110c565b816001600160a01b0316836001600160a01b03161415610d6d5760405162461bcd60e51b815260206004820152601960248201527f4552433732313a20617070726f766520746f2063616c6c65720000000000000060448201526064016103a2565b6001600160a01b03838116600081815260056020908152604080832094871680845294825291829020805460ff191686151590811790915591519182527f17307eab39ab6107e8899845ad3d59bd9653f200f220920489ca2b5937696c31910160405180910390a3505050565b610de58484846109ad565b610df184848484610ee5565b6106bf5760405162461bcd60e51b81526004016103a2906114db565b6060610e188261083c565b610e7c5760405162461bcd60e51b815260206004820152602f60248201527f4552433732314d657461646174613a2055524920717565727920666f72206e6f60448201526e3732bc34b9ba32b73a103a37b5b2b760891b60648201526084016103a2565b6000610e9360408051602081019091526000815290565b90506000815111610eb35760405180602001604052806000815250610ede565b80610ebd84610ff2565b604051602001610ece92919061145c565b6040516020818303038152906040525b9392505050565b60006001600160a01b0384163b15610fe757604051630a85bd0160e11b81526001600160a01b0385169063150b7a0290610f2990339089908890889060040161148b565b602060405180830381600087803b158015610f4357600080fd5b505af1925050508015610f73575060408051601f3d908101601f19168201909252610f70918101906113b6565b60015b610fcd573d808015610fa1576040519150601f19603f3d011682016040523d82523d6000602084013e610fa6565b606091505b508051610fc55760405162461bcd60e51b81526004016103a2906114db565b805181602001fd5b6001600160e01b031916630a85bd0160e11b149050610834565b506001949350505050565b6060816110165750506040805180820190915260018152600360fc1b602082015290565b8160005b8115611040578061102a81611628565b91506110399050600a83611596565b915061101a565b60008167ffffffffffffffff81111561106957634e487b7160e01b600052604160045260246000fd5b6040519080825280601f01601f191660200182016040528015611093576020820181803683370190505b5090505b8415610834576110a86001836115aa565b91506110b5600a86611643565b6110c090603061157e565b60f81b8183815181106110e357634e487b7160e01b600052603260045260246000fd5b60200101906001600160f81b031916908160001a905350611105600a86611596565b9450611097565b828054611118906115ed565b90600052602060002090601f01602090048101928261113a5760008555611180565b82601f1061115357805160ff1916838001178555611180565b82800160010185558215611180579182015b82811115611180578251825591602001919060010190611165565b5061118c929150611190565b5090565b5b8082111561118c5760008155600101611191565b600067ffffffffffffffff808411156111c0576111c0611683565b604051601f8501601f19908116603f011681019082821181831017156111e8576111e8611683565b8160405280935085815286868601111561120157600080fd5b858560208301376000602087830101525050509392505050565b80356001600160a01b038116811461123257600080fd5b919050565b600060208284031215611248578081fd5b610ede8261121b565b60008060408385031215611263578081fd5b61126c8361121b565b915061127a6020840161121b565b90509250929050565b600080600060608486031215611297578081fd5b6112a08461121b565b92506112ae6020850161121b565b9150604084013590509250925092565b600080600080608085870312156112d3578081fd5b6112dc8561121b565b93506112ea6020860161121b565b925060408501359150606085013567ffffffffffffffff81111561130c578182fd5b8501601f8101871361131c578182fd5b61132b878235602084016111a5565b91505092959194509250565b60008060408385031215611349578182fd5b6113528361121b565b915060208301358015158114611366578182fd5b809150509250929050565b60008060408385031215611383578182fd5b61138c8361121b565b946020939093013593505050565b6000602082840312156113ab578081fd5b8135610ede81611699565b6000602082840312156113c7578081fd5b8151610ede81611699565b6000602082840312156113e3578081fd5b813567ffffffffffffffff8111156113f9578182fd5b8201601f81018413611409578182fd5b610834848235602084016111a5565b600060208284031215611429578081fd5b5035919050565b600081518084526114488160208601602086016115c1565b601f01601f19169290920160200192915050565b6000835161146e8184602088016115c1565b8351908301906114828183602088016115c1565b01949350505050565b6001600160a01b03858116825284166020820152604081018390526080606082018190526000906114be90830184611430565b9695505050505050565b602081526000610ede6020830184611430565b60208082526032908201527f4552433732313a207472616e7366657220746f206e6f6e20455243373231526560408201527131b2b4bb32b91034b6b83632b6b2b73a32b960711b606082015260800190565b60208082526031908201527f4552433732313a207472616e736665722063616c6c6572206973206e6f74206f6040820152701ddb995c881b9bdc88185c1c1c9bdd9959607a1b606082015260800190565b6000821982111561159157611591611657565b500190565b6000826115a5576115a561166d565b500490565b6000828210156115bc576115bc611657565b500390565b60005b838110156115dc5781810151838201526020016115c4565b838111156106bf5750506000910152565b600181811c9082168061160157607f821691505b6020821081141561162257634e487b7160e01b600052602260045260246000fd5b50919050565b600060001982141561163c5761163c611657565b5060010190565b6000826116525761165261166d565b500690565b634e487b7160e01b600052601160045260246000fd5b634e487b7160e01b600052601260045260246000fd5b634e487b7160e01b600052604160045260246000fd5b6001600160e01b0319811681146116af57600080fd5b5056fea2646970667358221220f0dd74ac992e44b28ad8d87882d8d1175719b97f04a23b3a9eaaba757771850a64736f6c63430008040033",
  "linkReferences": {},
  "deployedLinkReferences": {}
}