{
  "_format": "hh-sol-artifact-1",
  "contractName": "NFTTransfer",
  "sourceName": "contracts/NFTTransfer.sol",
  "abi": [
    {
      "inputs": [],
      "stateMutability": "nonpayable",
      "type": "constructor"
    },
    {
      "anonymous": false,
      "inputs": [
        {
          "indexed": true,
          "internalType": "uint256",
          "name": "itemId",
          "type": "uint256"
        },
        {
          "indexed": true,
          "internalType": "address",
          "name": "nftContract",
          "type": "address"
        },
        {
          "indexed": true,
          "internalType": "uint256",
          "name": "tokenId",
          "type": "uint256"
        },
        {
          "indexed": false,
          "internalType": "address",
          "name": "seller",
          "type": "address"
        },
        {
          "indexed": false,
          "internalType": "address",
          "name": "owner",
          "type": "address"
        },
        {
          "indexed": false,
          "internalType": "bool",
          "name": "transferred",
          "type": "bool"
        }
      ],
      "name": "CertificateItemCreated",
      "type": "event"
    },
    {
      "inputs": [
        {
          "internalType": "address",
          "name": "nftContract",
          "type": "address"
        },
        {
          "internalType": "uint256",
          "name": "tokenId",
          "type": "uint256"
        }
      ],
      "name": "createCertificate",
      "outputs": [],
      "stateMutability": "payable",
      "type": "function"
    },
    {
      "inputs": [],
      "name": "fetchCertificatesCreated",
      "outputs": [
        {
          "components": [
            {
              "internalType": "uint256",
              "name": "itemId",
              "type": "uint256"
            },
            {
              "internalType": "address",
              "name": "nftContract",
              "type": "address"
            },
            {
              "internalType": "uint256",
              "name": "tokenId",
              "type": "uint256"
            },
            {
              "internalType": "address payable",
              "name": "seller",
              "type": "address"
            },
            {
              "internalType": "address payable",
              "name": "owner",
              "type": "address"
            },
            {
              "internalType": "bool",
              "name": "transferred",
              "type": "bool"
            }
          ],
          "internalType": "struct NFTTransfer.Certificate[]",
          "name": "",
          "type": "tuple[]"
        }
      ],
      "stateMutability": "view",
      "type": "function"
    },
    {
      "inputs": [],
      "name": "fetchCertificatesLeft",
      "outputs": [
        {
          "components": [
            {
              "internalType": "uint256",
              "name": "itemId",
              "type": "uint256"
            },
            {
              "internalType": "address",
              "name": "nftContract",
              "type": "address"
            },
            {
              "internalType": "uint256",
              "name": "tokenId",
              "type": "uint256"
            },
            {
              "internalType": "address payable",
              "name": "seller",
              "type": "address"
            },
            {
              "internalType": "address payable",
              "name": "owner",
              "type": "address"
            },
            {
              "internalType": "bool",
              "name": "transferred",
              "type": "bool"
            }
          ],
          "internalType": "struct NFTTransfer.Certificate[]",
          "name": "",
          "type": "tuple[]"
        }
      ],
      "stateMutability": "view",
      "type": "function"
    },
    {
      "inputs": [],
      "name": "fetchCertificatesTransferred",
      "outputs": [
        {
          "components": [
            {
              "internalType": "uint256",
              "name": "itemId",
              "type": "uint256"
            },
            {
              "internalType": "address",
              "name": "nftContract",
              "type": "address"
            },
            {
              "internalType": "uint256",
              "name": "tokenId",
              "type": "uint256"
            },
            {
              "internalType": "address payable",
              "name": "seller",
              "type": "address"
            },
            {
              "internalType": "address payable",
              "name": "owner",
              "type": "address"
            },
            {
              "internalType": "bool",
              "name": "transferred",
              "type": "bool"
            }
          ],
          "internalType": "struct NFTTransfer.Certificate[]",
          "name": "",
          "type": "tuple[]"
        }
      ],
      "stateMutability": "view",
      "type": "function"
    },
    {
      "inputs": [],
      "name": "fetchMyCertificates",
      "outputs": [
        {
          "components": [
            {
              "internalType": "uint256",
              "name": "itemId",
              "type": "uint256"
            },
            {
              "internalType": "address",
              "name": "nftContract",
              "type": "address"
            },
            {
              "internalType": "uint256",
              "name": "tokenId",
              "type": "uint256"
            },
            {
              "internalType": "address payable",
              "name": "seller",
              "type": "address"
            },
            {
              "internalType": "address payable",
              "name": "owner",
              "type": "address"
            },
            {
              "internalType": "bool",
              "name": "transferred",
              "type": "bool"
            }
          ],
          "internalType": "struct NFTTransfer.Certificate[]",
          "name": "",
          "type": "tuple[]"
        }
      ],
      "stateMutability": "view",
      "type": "function"
    },
    {
      "inputs": [],
      "name": "getListingPrice",
      "outputs": [
        {
          "internalType": "uint256",
          "name": "",
          "type": "uint256"
        }
      ],
      "stateMutability": "view",
      "type": "function"
    },
    {
      "inputs": [
        {
          "internalType": "address",
          "name": "nftContract",
          "type": "address"
        },
        {
          "internalType": "uint256",
          "name": "itemId",
          "type": "uint256"
        },
        {
          "internalType": "address",
          "name": "applicantAdd",
          "type": "address"
        }
      ],
      "name": "transferCertificate",
      "outputs": [],
      "stateMutability": "payable",
      "type": "function"
    }
  ],
  "bytecode": "0x60806040526658d15e1762800060045534801561001b57600080fd5b506001600055600380546001600160a01b03191633179055610db2806100426000396000f3fe6080604052600436106100705760003560e01c806388139c361161004e57806388139c36146100cf578063d2b3d392146100e4578063d77d627d146100f9578063dd22d7031461010c57600080fd5b806312e85585146100755780633a6d4a56146100985780636e178d2f146100ba575b600080fd5b34801561008157600080fd5b506004546040519081526020015b60405180910390f35b3480156100a457600080fd5b506100ad610121565b60405161008f9190610c92565b6100cd6100c8366004610c2e565b61031b565b005b3480156100db57600080fd5b506100ad61058a565b3480156100f057600080fd5b506100ad610726565b6100cd610107366004610c57565b6108d0565b34801561011857600080fd5b506100ad6109ec565b6060600061012e60015490565b905060008060005b8381101561019157336005600061014e846001610d1c565b81526020810191909152604001600020600401546001600160a01b0316141561017f5761017c600184610d1c565b92505b8061018981610d4b565b915050610136565b5060008267ffffffffffffffff8111156101bb57634e487b7160e01b600052604160045260246000fd5b6040519080825280602002602001820160405280156101f457816020015b6101e1610bdd565b8152602001906001900390816101d95790505b50905060005b84811015610312573360056000610212846001610d1c565b81526020810191909152604001600020600401546001600160a01b03161415610300576000600581610245846001610d1c565b815260208082019290925260409081016000908120548082526005845290829020825160c0810184528154815260018201546001600160a01b039081169582019590955260028201549381019390935260038101548416606084015260048101549384166080840152600160a01b90930460ff16151560a083015285519093508590879081106102e557634e487b7160e01b600052603260045260246000fd5b60209081029190910101526102fb600186610d1c565b945050505b8061030a81610d4b565b9150506101fa565b50949350505050565b600260005414156103735760405162461bcd60e51b815260206004820152601f60248201527f5265656e7472616e637947756172643a207265656e7472616e742063616c6c0060448201526064015b60405180910390fd5b600260005560045434146103d55760405162461bcd60e51b8152602060048201526024808201527f5072696365206d75737420626520657175616c20746f206c697374696e6720706044820152637269636560e01b606482015260840161036a565b6003546040516001600160a01b03909116903480156108fc02916000818181858888f1935050505015801561040e573d6000803e3d6000fd5b5061041d600180546001019055565b600061042860015490565b6040805160c0810182528281526001600160a01b038681166020808401828152848601898152336060870181815260006080890181815260a08a018281528c83526005909752908a90209851895593516001890180549189166001600160a01b03199283161790559251600289015551600388018054918816919093161790915590516004958601805493511515600160a01b026001600160a81b031990941691909516179190911790925592516323b872dd60e01b81529182015230602482015260448101859052919250906323b872dd90606401600060405180830381600087803b15801561051857600080fd5b505af115801561052c573d6000803e3d6000fd5b5050604080513381526000602082018190528183015290518593506001600160a01b038716925084917f449e299d6eeb750be430eb7c17ea5285211a0a87e2341dcf56da4557d12a9301919081900360600190a45050600160005550565b6060600061059760015490565b905060006105a460025490565b90506000808267ffffffffffffffff8111156105d057634e487b7160e01b600052604160045260246000fd5b60405190808252806020026020018201604052801561060957816020015b6105f6610bdd565b8152602001906001900390816105ee5790505b50905060005b84811015610312576000600581610627846001610d1c565b81526020810191909152604001600020600401546001600160a01b031614610714576000600581610659846001610d1c565b815260208082019290925260409081016000908120548082526005845290829020825160c0810184528154815260018201546001600160a01b039081169582019590955260028201549381019390935260038101548416606084015260048101549384166080840152600160a01b90930460ff16151560a083015285519093508590879081106106f957634e487b7160e01b600052603260045260246000fd5b602090810291909101015261070f600186610d1c565b945050505b8061071e81610d4b565b91505061060f565b6060600061073360015490565b9050600061074060025490565b60015461074d9190610d34565b90506000808267ffffffffffffffff81111561077957634e487b7160e01b600052604160045260246000fd5b6040519080825280602002602001820160405280156107b257816020015b61079f610bdd565b8152602001906001900390816107975790505b50905060005b848110156103125760006005816107d0846001610d1c565b81526020810191909152604001600020600401546001600160a01b031614156108be576000600581610803846001610d1c565b815260208082019290925260409081016000908120548082526005845290829020825160c0810184528154815260018201546001600160a01b039081169582019590955260028201549381019390935260038101548416606084015260048101549384166080840152600160a01b90930460ff16151560a083015285519093508590879081106108a357634e487b7160e01b600052603260045260246000fd5b60209081029190910101526108b9600186610d1c565b945050505b806108c881610d4b565b9150506107b8565b600260005414156109235760405162461bcd60e51b815260206004820152601f60248201527f5265656e7472616e637947756172643a207265656e7472616e742063616c6c00604482015260640161036a565b6002600081815583815260056020526040908190209091015490516323b872dd60e01b81523060048201526001600160a01b038381166024830152604482018390528516906323b872dd90606401600060405180830381600087803b15801561098b57600080fd5b505af115801561099f573d6000803e3d6000fd5b505050600084815260056020526040902060040180546001600160a81b0319166001600160a01b03851617600160a01b179055506109e1600280546001019055565b505060016000555050565b606060006109f960015490565b905060008060005b83811015610a5c573360056000610a19846001610d1c565b81526020810191909152604001600020600301546001600160a01b03161415610a4a57610a47600184610d1c565b92505b80610a5481610d4b565b915050610a01565b5060008267ffffffffffffffff811115610a8657634e487b7160e01b600052604160045260246000fd5b604051908082528060200260200182016040528015610abf57816020015b610aac610bdd565b815260200190600190039081610aa45790505b50905060005b84811015610312573360056000610add846001610d1c565b81526020810191909152604001600020600301546001600160a01b03161415610bcb576000600581610b10846001610d1c565b815260208082019290925260409081016000908120548082526005845290829020825160c0810184528154815260018201546001600160a01b039081169582019590955260028201549381019390935260038101548416606084015260048101549384166080840152600160a01b90930460ff16151560a08301528551909350859087908110610bb057634e487b7160e01b600052603260045260246000fd5b6020908102919091010152610bc6600186610d1c565b945050505b80610bd581610d4b565b915050610ac5565b6040805160c081018252600080825260208201819052918101829052606081018290526080810182905260a081019190915290565b80356001600160a01b0381168114610c2957600080fd5b919050565b60008060408385031215610c40578182fd5b610c4983610c12565b946020939093013593505050565b600080600060608486031215610c6b578081fd5b610c7484610c12565b925060208401359150610c8960408501610c12565b90509250925092565b602080825282518282018190526000919060409081850190868401855b82811015610d0f57815180518552868101516001600160a01b039081168887015286820151878701526060808301518216908701526080808301519091169086015260a09081015115159085015260c09093019290850190600101610caf565b5091979650505050505050565b60008219821115610d2f57610d2f610d66565b500190565b600082821015610d4657610d46610d66565b500390565b6000600019821415610d5f57610d5f610d66565b5060010190565b634e487b7160e01b600052601160045260246000fdfea2646970667358221220dcfb7bab71fffe95e2f801e0cfc73f3618495b7d081a5a84baa36fcdf5df83a864736f6c63430008040033",
  "linkReferences": {},
  "deployedLinkReferences": {}
}